{
  "contractName": "SimProtector",
  "abi": [
    {
      "inputs": [],
      "payable": false,
      "stateMutability": "nonpayable",
      "type": "constructor"
    },
    {
      "anonymous": false,
      "inputs": [
        {
          "indexed": true,
          "name": "phoneNumber",
          "type": "uint256"
        },
        {
          "indexed": true,
          "name": "provider",
          "type": "address"
        },
        {
          "indexed": false,
          "name": "timestamp",
          "type": "uint256"
        }
      ],
      "name": "SimChange",
      "type": "event"
    },
    {
      "anonymous": false,
      "inputs": [
        {
          "indexed": true,
          "name": "phoneNumber",
          "type": "uint256"
        },
        {
          "indexed": false,
          "name": "ownerAddress",
          "type": "address"
        },
        {
          "indexed": false,
          "name": "timestamp",
          "type": "uint256"
        }
      ],
      "name": "RegisterPhoneNumber",
      "type": "event"
    },
    {
      "anonymous": false,
      "inputs": [
        {
          "indexed": true,
          "name": "phoneNumber",
          "type": "uint256"
        },
        {
          "indexed": false,
          "name": "timestamp",
          "type": "uint256"
        }
      ],
      "name": "ConfirmShutdown",
      "type": "event"
    },
    {
      "constant": false,
      "inputs": [
        {
          "name": "provider",
          "type": "address"
        }
      ],
      "name": "addProvider",
      "outputs": [],
      "payable": false,
      "stateMutability": "nonpayable",
      "type": "function"
    },
    {
      "constant": false,
      "inputs": [
        {
          "name": "phoneNumber",
          "type": "uint256"
        },
        {
          "name": "numberOwner",
          "type": "address"
        }
      ],
      "name": "registerPhoneNumber",
      "outputs": [],
      "payable": false,
      "stateMutability": "nonpayable",
      "type": "function"
    },
    {
      "constant": false,
      "inputs": [
        {
          "name": "phoneNumber",
          "type": "uint256"
        }
      ],
      "name": "confirmShutdown",
      "outputs": [],
      "payable": false,
      "stateMutability": "nonpayable",
      "type": "function"
    },
    {
      "constant": false,
      "inputs": [
        {
          "name": "phoneNumber",
          "type": "uint256"
        }
      ],
      "name": "registerSimChange",
      "outputs": [],
      "payable": false,
      "stateMutability": "nonpayable",
      "type": "function"
    }
  ],
  "bytecode": "0x608060405234801561001057600080fd5b5033600260006101000a81548173ffffffffffffffffffffffffffffffffffffffff021916908373ffffffffffffffffffffffffffffffffffffffff160217905550610572806100616000396000f3fe608060405260043610610062576000357c0100000000000000000000000000000000000000000000000000000000900463ffffffff16806346e2577a146100675780635734716e146100b857806379157b2b146100f3578063ef2449931461012e575b600080fd5b34801561007357600080fd5b506100b66004803603602081101561008a57600080fd5b81019080803573ffffffffffffffffffffffffffffffffffffffff169060200190929190505050610189565b005b3480156100c457600080fd5b506100f1600480360360208110156100db57600080fd5b810190808035906020019092919050505061023f565b005b3480156100ff57600080fd5b5061012c6004803603602081101561011657600080fd5b8101908080359060200190929190505050610376565b005b34801561013a57600080fd5b506101876004803603604081101561015157600080fd5b8101908080359060200190929190803573ffffffffffffffffffffffffffffffffffffffff169060200190929190505050610426565b005b600260009054906101000a900473ffffffffffffffffffffffffffffffffffffffff1673ffffffffffffffffffffffffffffffffffffffff163373ffffffffffffffffffffffffffffffffffffffff161415156101e557600080fd5b60016000808373ffffffffffffffffffffffffffffffffffffffff1673ffffffffffffffffffffffffffffffffffffffff16815260200190815260200160002060006101000a81548160ff02191690831515021790555050565b3373ffffffffffffffffffffffffffffffffffffffff166001600083815260200190815260200160002060009054906101000a900473ffffffffffffffffffffffffffffffffffffffff1673ffffffffffffffffffffffffffffffffffffffff1614151561033b576040517f08c379a00000000000000000000000000000000000000000000000000000000081526004018080602001828103825260248152602001807f4f6e6c792070686f6e65206e756d626572206f776e65722063616e207368757481526020017f646f776e0000000000000000000000000000000000000000000000000000000081525060400191505060405180910390fd5b807fb512fa37b35c6345e9b4d2f420923ba6b9f511513baac62a88ac649d745ea612426040518082815260200191505060405180910390a250565b600115156000803373ffffffffffffffffffffffffffffffffffffffff1673ffffffffffffffffffffffffffffffffffffffff16815260200190815260200160002060009054906101000a900460ff1615151415156103d457600080fd5b3373ffffffffffffffffffffffffffffffffffffffff16817fbff3070a2eadf428f5e6c5a82cf13b2146d4fc25bc235715a415e10baa51160d426040518082815260200191505060405180910390a350565b600115156000803373ffffffffffffffffffffffffffffffffffffffff1673ffffffffffffffffffffffffffffffffffffffff16815260200190815260200160002060009054906101000a900460ff16151514151561048457600080fd5b806001600084815260200190815260200160002060006101000a81548173ffffffffffffffffffffffffffffffffffffffff021916908373ffffffffffffffffffffffffffffffffffffffff160217905550817fa064324859eefb7429e24882ed9d0df068d117ece7bdacc995940c92314611c68242604051808373ffffffffffffffffffffffffffffffffffffffff1673ffffffffffffffffffffffffffffffffffffffff1681526020018281526020019250505060405180910390a2505056fea165627a7a72305820f50de76d4114d47080f5d8d99c45b0c15f564aa25066f8894050241634a04be40029",
  "source": "pragma solidity >=0.4.21 <0.7.0;\n\ncontract SimProtector {\n  mapping(address => bool) approvedProviders;\n  mapping(uint => address) phoneNumberToAddress;\n\n  address owner;\n\n  event SimChange(uint indexed phoneNumber, address indexed provider, uint timestamp);\n  event RegisterPhoneNumber(uint indexed phoneNumber, address ownerAddress, uint timestamp);\n  event ConfirmShutdown(uint indexed phoneNumber, uint timestamp);\n\n  constructor() public {\n    owner = msg.sender;\n  }\n\n  modifier onlyOwner {\n    require(msg.sender == owner);\n    _;\n  }\n\n  modifier onlyProvider {\n    require(approvedProviders[msg.sender] == true);\n    _;\n  }\n\n  function addProvider(address provider) public onlyOwner {\n    approvedProviders[provider] = true;\n  }\n\n  function registerPhoneNumber(uint phoneNumber, address numberOwner) public onlyProvider {\n    phoneNumberToAddress[phoneNumber] = numberOwner;\n    emit RegisterPhoneNumber(phoneNumber, numberOwner, block.timestamp);\n  }\n\n  function confirmShutdown(uint phoneNumber) public {\n    require(phoneNumberToAddress[phoneNumber] == msg.sender, \"Only phone number owner can shutdown\");\n    emit ConfirmShutdown(phoneNumber, block.timestamp);\n  }\n\n  function registerSimChange(uint phoneNumber) public onlyProvider {\n    emit SimChange(phoneNumber, msg.sender, block.timestamp);\n  }\n}\n",
  "sourcePath": "/Users/michaeljcohen/Desktop/projects/sim-protector/contracts/SimProtector.sol",
  "compiler": {
    "name": "solc",
    "version": "0.5.0+commit.1d4f565a.Emscripten.clang"
  },
  "schemaVersion": "3.0.2",
  "updatedAt": "2020-02-15T00:45:05.328Z",
  "devdoc": {
    "methods": {}
  },
  "userdoc": {
    "methods": {}
  }
}