{
  "contractName": "SimProtector",
  "abi": [
    {
      "inputs": [],
      "payable": false,
      "stateMutability": "nonpayable",
      "type": "constructor"
    },
    {
      "anonymous": false,
      "inputs": [
        {
          "indexed": true,
          "internalType": "uint256",
          "name": "phoneNumber",
          "type": "uint256"
        },
        {
          "indexed": false,
          "internalType": "uint256",
          "name": "timestamp",
          "type": "uint256"
        }
      ],
      "name": "ConfirmShutdown",
      "type": "event"
    },
    {
      "anonymous": false,
      "inputs": [
        {
          "indexed": true,
          "internalType": "uint256",
          "name": "phoneNumber",
          "type": "uint256"
        },
        {
          "indexed": false,
          "internalType": "address",
          "name": "ownerAddress",
          "type": "address"
        },
        {
          "indexed": false,
          "internalType": "uint256",
          "name": "timestamp",
          "type": "uint256"
        }
      ],
      "name": "RegisterPhoneNumber",
      "type": "event"
    },
    {
      "anonymous": false,
      "inputs": [
        {
          "indexed": true,
          "internalType": "uint256",
          "name": "phoneNumber",
          "type": "uint256"
        },
        {
          "indexed": true,
          "internalType": "address",
          "name": "provider",
          "type": "address"
        },
        {
          "indexed": false,
          "internalType": "uint256",
          "name": "timestamp",
          "type": "uint256"
        }
      ],
      "name": "SimChange",
      "type": "event"
    },
    {
      "constant": false,
      "inputs": [
        {
          "internalType": "address",
          "name": "provider",
          "type": "address"
        }
      ],
      "name": "addProvider",
      "outputs": [],
      "payable": false,
      "stateMutability": "nonpayable",
      "type": "function"
    },
    {
      "constant": false,
      "inputs": [
        {
          "internalType": "uint256",
          "name": "phoneNumber",
          "type": "uint256"
        },
        {
          "internalType": "address",
          "name": "numberOwner",
          "type": "address"
        }
      ],
      "name": "registerPhoneNumber",
      "outputs": [],
      "payable": false,
      "stateMutability": "nonpayable",
      "type": "function"
    },
    {
      "constant": false,
      "inputs": [
        {
          "internalType": "uint256",
          "name": "phoneNumber",
          "type": "uint256"
        }
      ],
      "name": "confirmShutdown",
      "outputs": [],
      "payable": false,
      "stateMutability": "nonpayable",
      "type": "function"
    },
    {
      "constant": false,
      "inputs": [
        {
          "internalType": "uint256",
          "name": "phoneNumber",
          "type": "uint256"
        }
      ],
      "name": "registerSimChange",
      "outputs": [],
      "payable": false,
      "stateMutability": "nonpayable",
      "type": "function"
    }
  ],
  "bytecode": "0x608060405234801561001057600080fd5b5033600260006101000a81548173ffffffffffffffffffffffffffffffffffffffff021916908373ffffffffffffffffffffffffffffffffffffffff16021790555061050a806100616000396000f3fe608060405234801561001057600080fd5b506004361061004c5760003560e01c806346e2577a146100515780635734716e1461009557806379157b2b146100c3578063ef244993146100f1575b600080fd5b6100936004803603602081101561006757600080fd5b81019080803573ffffffffffffffffffffffffffffffffffffffff16906020019092919050505061013f565b005b6100c1600480360360208110156100ab57600080fd5b81019080803590602001909291905050506101f3565b005b6100ef600480360360208110156100d957600080fd5b81019080803590602001909291905050506102e5565b005b61013d6004803603604081101561010757600080fd5b8101908080359060200190929190803573ffffffffffffffffffffffffffffffffffffffff169060200190929190505050610393565b005b600260009054906101000a900473ffffffffffffffffffffffffffffffffffffffff1673ffffffffffffffffffffffffffffffffffffffff163373ffffffffffffffffffffffffffffffffffffffff161461019957600080fd5b60016000808373ffffffffffffffffffffffffffffffffffffffff1673ffffffffffffffffffffffffffffffffffffffff16815260200190815260200160002060006101000a81548160ff02191690831515021790555050565b3373ffffffffffffffffffffffffffffffffffffffff166001600083815260200190815260200160002060009054906101000a900473ffffffffffffffffffffffffffffffffffffffff1673ffffffffffffffffffffffffffffffffffffffff16146102aa576040517f08c379a00000000000000000000000000000000000000000000000000000000081526004018080602001828103825260248152602001806104b26024913960400191505060405180910390fd5b807fb512fa37b35c6345e9b4d2f420923ba6b9f511513baac62a88ac649d745ea612426040518082815260200191505060405180910390a250565b600115156000803373ffffffffffffffffffffffffffffffffffffffff1673ffffffffffffffffffffffffffffffffffffffff16815260200190815260200160002060009054906101000a900460ff1615151461034157600080fd5b3373ffffffffffffffffffffffffffffffffffffffff16817fbff3070a2eadf428f5e6c5a82cf13b2146d4fc25bc235715a415e10baa51160d426040518082815260200191505060405180910390a350565b600115156000803373ffffffffffffffffffffffffffffffffffffffff1673ffffffffffffffffffffffffffffffffffffffff16815260200190815260200160002060009054906101000a900460ff161515146103ef57600080fd5b806001600084815260200190815260200160002060006101000a81548173ffffffffffffffffffffffffffffffffffffffff021916908373ffffffffffffffffffffffffffffffffffffffff160217905550817fa064324859eefb7429e24882ed9d0df068d117ece7bdacc995940c92314611c68242604051808373ffffffffffffffffffffffffffffffffffffffff1673ffffffffffffffffffffffffffffffffffffffff1681526020018281526020019250505060405180910390a2505056fe4f6e6c792070686f6e65206e756d626572206f776e65722063616e2073687574646f776ea265627a7a723158206d3d9b646e5a016ea8d7d3dc6543e9cffa4123daa9fdf98d472b46b7dfb70c3064736f6c63430005100032",
  "source": "pragma solidity >=0.4.21 <0.7.0;\n\ncontract SimProtector {\n  mapping(address => bool) approvedProviders;\n  mapping(uint => address) phoneNumberToAddress;\n\n  address owner;\n\n  event SimChange(uint indexed phoneNumber, address indexed provider, uint timestamp);\n  event RegisterPhoneNumber(uint indexed phoneNumber, address ownerAddress, uint timestamp);\n  event ConfirmShutdown(uint indexed phoneNumber, uint timestamp);\n\n  constructor() public {\n    owner = msg.sender;\n  }\n\n  modifier onlyOwner {\n    require(msg.sender == owner);\n    _;\n  }\n\n  modifier onlyProvider {\n    require(approvedProviders[msg.sender] == true);\n    _;\n  }\n\n  function addProvider(address provider) public onlyOwner {\n    approvedProviders[provider] = true;\n  }\n\n  function registerPhoneNumber(uint phoneNumber, address numberOwner) public onlyProvider {\n    phoneNumberToAddress[phoneNumber] = numberOwner;\n    emit RegisterPhoneNumber(phoneNumber, numberOwner, block.timestamp);\n  }\n\n  function confirmShutdown(uint phoneNumber) public {\n    require(phoneNumberToAddress[phoneNumber] == msg.sender, \"Only phone number owner can shutdown\");\n    emit ConfirmShutdown(phoneNumber, block.timestamp);\n  }\n\n  function registerSimChange(uint phoneNumber) public onlyProvider {\n    emit SimChange(phoneNumber, msg.sender, block.timestamp);\n  }\n}\n",
  "sourcePath": "/Users/mdcoon/git/simprotector/packages/sim-contract/contracts/SimProtector.sol",
  "compiler": {
    "name": "solc",
    "version": "0.5.16+commit.9c3226ce.Emscripten.clang"
  },
  "schemaVersion": "3.0.23",
  "updatedAt": "2020-02-15T03:03:32.208Z",
  "devdoc": {
    "methods": {}
  },
  "userdoc": {
    "methods": {}
  }
}